S00F000047524F555020392E737265632F
S113000071C000002AC200008CC000008AC0000039
S113001088C0000086C0000084C0000082C00000C8
S113002080C000007EC000007CC000007AC00000D8
S113003078C0000076C0000074C0000072C00000E8
S113004070C000006EC000006CC000006AC00000F8
S113005068C0000066C0000064C0000062C0000008
S113006060C000005EC000005CC000005AC0000018
S113007058C0000056C0000054C0000052C0000028
S113008050C000004EC000004CC000004AC0000038
S113009048C0000046C0000044C0000042C0000048
S11300A040C000003EC000003CC000003AC0000058
S11300B038C0000036C0000034C0000032C0000068
S11300C030C000002EC000002CC000002AC0000078
S11300D028C0000026C0000024C0000022C0000088
S11300E020C0000011241FBECFEFD1E2DEBFCDBF80
S11300F000E00CBF14E0A0E0B2E0EEE5F0E100E0C7
S11301000BBF02C007900D92A43FB107D9F725E0B9
S1130110A4EFB4E001C01D92A830B207E1F744D4C3
S11301209CC76ECFF999FECF92BD81BDF89A80B578
S11301300895F999FECF92BD81BD60BDFA9AF99AEE
S113014008958BEF80930B018091090184FF35C0E2
S11301508091090185FF34C08091090186FF33C075
S113016080910901882394F58DEF80930B01809190
S1130170090184FF2EC08091090185FF2DC0809163
S1130180090186FF2CC08091090188235CF58EEF5C
S113019080930B018091090184FF27C0809109019C
S11301A085FF26C08091090186FF25C08091090141
S11301B0882324F588EC90E0089581E090E0089588
S11301C084E090E0089587E090E0089584E690E06C
S11301D0089582E090E0089585E090E0089588E035
S11301E090E0089580E090E0089583E090E0089521
S11301F086E090E0089589E090E0089588EE93E029
S113020008952A9A83ED90E30197F1F700C0000066
S11302102A9883ED90E30197F1F700C00000089558
S113022082B928982998EDCF089582B9289A2998F7
S1130230E8CF089588E3F4DF8CE0F2DF86E0F0DFB6
S113024081E0EECF08950F931F93CF93DF93FC01CA
S113025001900020E9F73197E81BF90B1E161F06E1
S11302604CF4EC018C010E0F1F1F8991DEDFC017C7
S1130270D107D9F7DF91CF911F910F910895A29AD9
S113028083ED90E30197F1F700C00000A29883ED9D
S113029090E30197F1F700C00000089580930201F4
S11302A0A098A198ECCF089580930201A09AA198F8
S11302B0E6CF089588E3F2DF8CE0F0DF86E0EEDF3E
S11302C081E0ECCF08950F931F93CF93DF93FC014C
S11302D001900020E9F73197E81BF90B1E161F0661
S11302E04CF4EC018C010E0F1F1F8991DDDFC01748
S11302F0D107D9F7DF91CF911F910F91089581E034
S1130300CDCF089597DF80E88BDF7BDF80E092E03C
S11303109ADF77DF2FE38DE093E021508040904017
S1130320E1F700C00000EBCF089584DF80E878DFB8
S113033068DF85E092E087DF64DF2FE784E89EE1F1
S1130340215080409040E1F700C00000D8CF0895CC
S113035088B1856088B92FEB87E299E0215080400D
S11303609040E1F700C0000040980895409888B19B
S1130370856088B92FE78AE196E02150804090405B
S1130380E1F700C000004098089554DF80E848DF9A
S113039038DF8FE192E057DF34DF2FEB87E299E01B
S11303A0215080409040E1F700C00000D1DFA7DF7A
S11303B041DF80E835DF25DF8DE292E044DF21DF95
S11303C02FEB87E299E0215080409040E1F700C094
S11303D0000030DF80E824DF14DF8AE392E033DFBB
S11303E010DF2FE78AE196E0215080409040E1F74A
S11303F000C0000084DFBACF08951CDF80E810DF5E
S113040000DF88E492E01FDFFCDE2FE78AE196E05C
S1130410215080409040E1F700C0000070DF85DF8C
S1130420B4CF08955198F894E8CF0895519A599A01
S11304302FE986E891E0215080409040E1F700C028
S1130440000059982FE38EE795E0215080409040BA
S1130450E1F700C00000E6CF08951F920F920FB697
S11304600F9211240BB60F922F933F934F935F93E8
S11304706F937F938F939F93AF93BF93EF93FF9368
S113048041DF83EC99E00197F1F700C00000CEDF73
S1130490FF91EF91BF91AF919F918F917F916F9158
S11304A05F914F913F912F910F900BBE0F900FBE14
S11304B00F901F901895AC01E4E0F1E08081816019
S11304C0808310920501141615060CF042C020E03A
S11304D030E0E5E0F1E090819160908389EF90E075
S11304E00197F1F700C0000010829FE36DE083E004
S11304F0915060408040E1F700C00000908191601D
S1130500908383EF91E00197F1F700C0000010821F
S11305109FE36DE083E0915060408040E1F700C0CC
S113052000009081916090838DEE92E00197F1F745
S113053000C0000010829FE36DE083E091506040B2
S11305408040E1F700C000002F5F3F4F4217530780
S113055011F60895CF92DF92EF92FF920F931F93BB
S1130560CF93DF93CDB7DEB727970FB6F894DEBFEE
S11305700FBECDBF9FDE81E091DE80E88FDE88E58F
S113058092E0A1DE7CDE80EC89DE80E692E09BDEF8
S113059076DED7DD8C010A9720F0D3DD8C010A9733
S11305A0E0F71F930F930F2EF3E7EF2EF2E0FF2EE9
S11305B0F02DFF92EF929E012F5F3F4F69013F9311
S11305C02F9370D283ED6ADEC6017DDE58DE84E9A6
S11305D065DE86E792E077DE28EE33E0029FC00115
S11305E0039F900D129F900D11249F938F93FF9260
S11305F0EF927E0133E0E30EF11CFF92EF9252D2B0
S113060082EA4CDEC7015FDE86EA48DE8FE792E0CD
S11306105ADE35DE87EA42DE81E892E054DE2FDEE0
S113062090DD0FB6F894DEBF0FBECDBF883C9105B8
S113063021F487DD883C9105E1F3883E33E093079C
S113064019F4C80138DF1BC084369105C1F48FE367
S11306509DE023E0815090402040E1F700C000007D
S113066084ED1CDE83E892E02EDE3FE38DE093E030
S1130670315080409040E1F700C0000000DE2FE3DD
S11306803DE083E0215030408040E1F700C00000AD
S113069084ED04DE8FE892E016DE9FE32DE033E084
S11306A0915020403040E1F700C00000E8DD27967B
S11306B00FB6F894DEBF0FBECDBFDF91CF911F916F
S11306C00F91FF90EF90DF90CF9008951092C500A6
S11306D08CE08093C40088E18093C10086E080931D
S11306E0C2000895E0ECF0E0908195FFFDCF809387
S11306F0C6000895CF93DF93EC018881882329F005
S11307002196F0DF89918111FCCFDF91CF9108957B
S11307108CE992E0EFCF089582EB92E0EBDF8DEB72
S113072092E0E8DFF5DF2FE38DE093E02150804095
S11307309040E1F700C0000008958DEB92E0DADF0D
S11307408DEB92E0D7DF81EC92E0D4DF8DEB92E089
S1130750D1DF81ED92E0CEDF8BEE92E0CBDF85E05E
S113076093E0C8DF81E293E0C5DF8CE393E0C2DF6E
S113077085E593E0BFDF82E793E0BCDF88E893E0A0
S1130780B9DF8DEA93E0B6DF84EC93E0B3DF8BED61
S113079094E0B0DF80ED93E0ADCF0895AF92BF92C7
S11307A0CF92DF92EF92FF920F931F93CF93DF9339
S11307B05C0100E010E0C0ECD0E00F2EF6ECEF2E70
S11307C0F12CF02D6B0181E0C81AD10888818823AF
S11307D0ECF7F7018081883051F41016110684F487
S11307E001501109F501E00FF11F108218C08D307E
S11307F011F08A3029F4F501E00FF11F108211C0C5
S11308000C151D0564F498012F5F3F4FF501E00FAF
S1130810F11F8083F501E20FF31F1082890162DF6B
S1130820D5CFDF91CF911F910F91FF90EF90DF9083
S1130830CF90BF90AF900895CF93DF93CDB7DEB73D
S11308402C970FB6F894DEBF0FBECDBF84EE93E0B5
S113085051DF66E070E0CE010196A0DF8FEF93E0F8
S113086049DF63E070E0CE01079698DF8FE294E001
S113087041DF63E070E0CE010A9690DFCE01079677
S1130880E3D0CE010A96E0D08FE594E033DF85E82B
S113089094E030DF8BEA94E02DDF2FE38DE093E0EA
S11308A0215080409040E1F700C0000046DF2C96C4
S11308B00FB6F894DEBF0FBECDBFDF91CF91089580
S11308C0CF93DF93CDB7DEB764970FB6F894DEBF4E
S11308D00FBECDBF32DF64E170E0CE0101965EDF72
S11308E0CE010196B1D08130910539F01CF4892BE9
S11308F031F007C00A975CF004C09EDF08C00CDF2B
S113090006C08BED94E0F6DE88EC94E0F3DE6496AA
S11309100FB6F894DEBF0FBECDBFDF91CF9108951F
S1130920EF92FF920F931F93CF93DF9300D01F9208
S1130930CDB7DEB764E170E084EF94E02FDFCE0141
S113094001967C0108E210E0C801ECDBF701819319
S11309507F01FFE32DE083E0F15020408040E1F788
S113096000C000000F5F1F4F0B32110569F71C8296
S1130970BE016F5F7F4F84EF94E083D0892B11F425
S11309809FDF07C08EED94E0B5DECE010196B2DEA6
S1130990BFDE0F900F900F900F90DF91CF911F91BA
S11309A00F91FF90EF90089591DE61E388E290E06B
S11309B0C0DB2FE38DE093E0215080409040E1F7CD
S11309C000C0000062E389E290E0B3DBEFE3FDE006
S11309D023E0E150F0402040E1F700C0000063E371
S11309E08AE290E0A6DB8FE39DE0E3E08150904053
S11309F0E040E1F700C000008FDE0F2EFAE0AF2EDA
S1130A00BB24B394F02DD7E0CFEFCC24C394DC2CDB
S1130A100F2EF7E0EF2EFF24F394F02D09E610E0FB
S1130A20F501D083C3BBF601C083C1B9D4B9C7B93A
S1130A30F70110825098F801808181608083E89AE0
S1130A4078946EDF87DDECCFFC0188279927E89442
S1130A5021912032E9F3293010F02E30C8F32B32E3
S1130A6039F02D3231F4689403C014D0820F911DF3
S1130A70219120532A30C8F31EF4909581959F4FFD
S1130A800895FB01DC018D91019080190110D9F3C7
S1130A90990B08957AE0979F902D879F802D910D53
S1130AA0112408950F931F93CF93DF93CDB7DEB72F
S1130AB02E970FB6F894DEBF0FBECDBF0E891F89E7
S1130AC086E08C831A8309838FEF9FE79E838D834F
S1130AD0AE01465E5F4F688D798DCE01019610D0D0
S1130AE0EF81F885E00FF11F10822E960FB6F8946F
S1130AF0DEBF0FBECDBFDF91CF911F910F9108953F
S1130B002F923F924F925F926F927F928F929F9219
S1130B10AF92BF92CF92DF92EF92FF920F931F9307
S1130B20CF93DF93CDB7DEB72B970FB6F894DEBF24
S1130B300FBECDBF6C017B018A01FC0117821682B6
S1130B40838181FFBFC1CE0101963C01F6019381EF
S1130B50F70193FD859193FF81917F01882309F427
S1130B60ADC1853239F493FD859193FF81917F0165
S1130B70853221F4B60190E0D6D1E8CF912C212C16
S1130B80312CFFE1F315D8F08B3279F038F4803250
S1130B9079F08332A1F4232D20611DC08D3261F0E0
S1130BA0803369F4232D216016C0832D8260382E92
S1130BB0E32DE4603E2E2AC0F32DF8601DC037FCFF
S1130BC02DC020ED280F2A3040F08E32B9F436FCC7
S1130BD075C1232D2064322E19C036FE06C08AE06A
S1130BE0989E200D1124922E11C0EAE02E9E200D15
S1130BF01124222EF32DF0623F2E08C08C3621F4EE
S1130C00832D8068382E02C0883641F4F70193FDA5
S1130C10859193FF81917F018111B3CF982F9F7D9F
S1130C209554933028F40C5F1F4F9FE399830DC0B4
S1130C30833631F0833771F0833509F055C020C015
S1130C40F801808189830E5F1F4F88248394912C3F
S1130C50530112C02801F2E04F0E511CF801A0808C
S1130C60B18036FE03C0692D70E002C06FEF7FEFE4
S1130C70C5014ED14C018201F32DFF773F2E15C0E3
S1130C80280122E0420E511CF801A080B18036FEFA
S1130C9003C0692D70E002C06FEF7FEFC5012DD155
S1130CA04C01F32DF0683F2E820133FC19C0822DD4
S1130CB090E088169906A0F4B60180E290E033D162
S1130CC02A94F5CFF50137FC859137FE81915F01B8
S1130CD0B60190E028D121102A9421E0821A9108CB
S1130CE08114910479F7E1C0843611F0893639F51D
S1130CF0F80137FE07C060817181828193810C5FA6
S1130D001F4F08C060817181072E000C880B990B5E
S1130D100E5F1F4FF32DFF763F2E97FF09C090956E
S1130D208095709561957F4F8F4F9F4FF0683F2E50
S1130D302AE030E0A30133D1882E861844C08537D9
S1130D4031F4232D2F7EB22E2AE030E025C0932DDE
S1130D50997FB92E8F36C1F018F4883579F0AEC07A
S1130D60803719F0883721F0A9C0E92FE061BE2E41
S1130D70B4FE0DC0FB2DF460BF2E09C034FE0AC0C2
S1130D80292F2660B22E06C028E030E005C020E1FD
S1130D9030E002C020E132E0F801B7FE07C0608114
S1130DA07181828193810C5F1F4F06C060817181C4
S1130DB080E090E00E5F1F4FA301F1D0882E8618CB
S1130DC0FB2DFF773F2E36FE0DC0232D2E7FA22E46
S1130DD0891458F434FE0BC032FC09C0832D8E7E76
S1130DE0A82E05C0B82CA32C03C0B82C01C0B92C64
S1130DF0A4FE0FC0FE01E80DF11D8081803321F4B3
S1130E009A2D997EA92E09C0A2FE06C0B394B3946C
S1130E1004C08A2D867809F0B394A3FC10C0A0FE08
S1130E2006C0B21480F4280C922C9B180DC0B21486
S1130E3058F4B60180E290E076D0B394F8CFB214BF
S1130E4018F42B1802C0982C212CA4FE0FC0B60154
S1130E5080E390E068D0A2FE16C0A1FC03C088E73E
S1130E6090E002C088E590E0B6010CC08A2D867837
S1130E7051F0A1FE02C08BE201C080E2A7FC8DE22A
S1130E80B60190E050D0891430F4B60180E390E0CC
S1130E904AD09A94F8CF8A94F301E80DF11D808129
S1130EA0B60190E040D08110F6CF222009F44ECE56
S1130EB0B60180E290E037D02A94F7CFF60186811C
S1130EC0978102C08FEF9FEF2B960FB6F894DEBF89
S1130ED00FBECDBFDF91CF911F910F91FF90EF9087
S1130EE0DF90CF90BF90AF909F908F907F906F9046
S1130EF05F904F903F902F900895FC0105906150B2
S1130F0070400110D8F7809590958E0F9F1F08951B
S1130F10FC016150704001900110D8F780959095C4
S1130F208E0F9F1F08950F931F93CF93DF93FB01A1
S1130F30238121FD03C08FEF9FEF2CC022FF16C039
S1130F4046815781248135814217530744F4A08197
S1130F50B1819D012F5F3F4F318320838C93268184
S1130F6037812F5F3F4F3783268314C08B01EC01F9
S1130F70FB010084F185E02D1995892BE1F6D80158
S1130F8016968D919C911797019617969C938E9324
S1130F901697CE01DF91CF911F910F910895FA0119
S1130FA0AA27283051F1203181F1E8946F936E7FA4
S1130FB06E5F7F4F8F4F9F4FAF4FB1E03ED0B4E095
S1130FC03CD0670F781F891F9A1FA11D680F791FD6
S1130FD08A1F911DA11D6A0F711D811D911DA11DE7
S1130FE020D009F468943F912AE0269F11243019F7
S1130FF0305D3193DEF6CF010895462F4770405D92
S11310004193B3E00FD0C9F7F6CF462F4F70405D40
S11310104A3318F0495D31FD4052419302D0A9F79B
S1131020EACFB4E0A6959795879577956795BA9595
S1131030C9F700976105710508959B01AC010A2E5B
S113104006945795479537952795BA95C9F7620F32
S1111050731F841F951FA01D0895F894FFCFF1
S113105E57454C6C00524547495354524154494FDD
S113106E4E20494E2050524F47524553532E00475F
S113107E415445204F50454E494E472E0043415250
S113108E2050415353494E472E0047415445204367
S113109E4C4F53494E472E0043415220415050521B
S11310AE4F414348494E47004652494447452E0056
S11310BE4E756D626572206F66206472696E6B7315
S11310CE3A2000256400416D6F756E743A20002F2E
S11310DE003D0043616E63656C65642E2E2E004FD9
S11310EE7264657220416761696E2E00456E746587
S11310FE722050617373776F726420686572653AFB
S113110E20000D0A204F70657261746F720D0A0A09
S113111E004D656E75204F7074696F6E733A0D0ACB
S113112E00312920546F7572697374207265676972
S113113E7374726174696F6E0D0A003229204368EC
S113114E65636B20746F75726973747320636F7546
S113115E6E740D0A00332920436865636B2076652F
S113116E6869636C657320696E207061726B0D0A19
S113117E00342920436865636B20636F6C6C656370
S113118E7465642066756E64730D0A0035292043F8
S113119E6865636B206472697665727320636F751C
S11311AE6E740D0A00362920436865636B20626FE6
S11311BE74746C657320696E206672696467650D5C
S11311CE0A003729205265706C656E697368204673
S11311DE72696467650D0A00382920436865636B7C
S11311EE20636172732077616974696E67206F750D
S11311FE7473696465207061726B0D0A003929205D
S113120E436865636B207061726B207374617475CF
S113121E730D0A003029204C6F676F75740D0A0028
S113122E456E74657220796F75722063686F696399
S113123E653A20000D0A456E746572206361722052
S113124E6E756D62657220706C6174653A20000D66
S113125E0A456E746572206E756D626572206F66D6
S113126E20746F7572697374732062656C6F772066
S113127E3130207965617273206F6C643A20000DF1
S113128E0A456E746572206E756D626572206F66A6
S113129E20746F7572697374732061626F76652042
S11312AE3130207965617273206F6C643A20000DC1
S11312BE0A4164756C7420666565202D2D2D2D2DC7
S11312CE3E20352C3030302070657220706572737C
S11312DE6F6E0D0A000D0A4164756C7420666565A7
S11312EE202D2D2D2D2D3E20322C303030207065AA
S11312FE7220706572736F6E0D0A000D0A52656767
S113130E697374726174696F6E2073756363657348
S113131E7366756C2E0D0A000D0A496E76616C6942
S113132E642063686F6963652121210D0A000D0A2B
S113133E496E76616C696420696E70757421212121
S107134E0D0A200060
S9030000FC
